01SPK        NAV        000035ANV20240131ANVISNINGSFIL                      00
02116684810   66064900162           2024013120240201202402290100000346900UFT                 1000
02116684810   66064900162           2024013120240201202402290100000346900UFT                 1000
02116684810   66064900162           2024013120240201202402290100000346900UFT                 1000
02116684810   66064900162           2024013120240201202402290100000346900UFT                 1000
02116684810   66064900162           2024013120240201202402290100000346900UFT                 1000
02116684810   66064900162           2024013120240201202402290100000346900UFT                 1000
02116684810   66064900162           2024013120240201202402290100000346900UFT                 1000
02116684810   66064900162           2024013120240201202402290100000346900UFT                 1000
0900000000800000002775100