01NAV        SPK        000011AVR20250101Avregningsretur                    00                                   
02123116468   202412232512594620025125946200202501090010                                   00100794088716008409019202501012025013100000207800KBK120250109
02123058138   202412232702724267227027242672202501090010                                   00100794103111008404500202501012025013100000593300DBK120250109
02123058143   202412232702724267227027242672202501090010                                   00100794103111008409019202501012025013100000011500KBK120250109
02123058141   202412232702724267227027242672202501090010                                   00100794103111008409019202501012025013100000044900KBK120250109
02123058140   202412232702724267227027242672202501090010                                   00100794103111008409019202501012025013100000026500KBK120250109
02123018245   202412232104574031221045740312202501090010                                   00100794888512008401000202501012025013100000389400DBK120250109
02123018244   202412232104574031221045740312202501090010                                   00100794888512008401000202501012025013100000019500DBK120250109
02123018246   202412232104574031221045740312202501090010                                   00100794888512008401000202501012025013100000162200DBK120250109
02123018243   202412232104574031221045740312202501090010                                   00100794888512008401000202501012025013100000184800DBK120250109
02123018242   202412232104574031221045740312202501090010                                   00100794888512008401000202501012025013100000009800DBK120250109
02123018240   202412232104574031221045740312202501090010                                   00100794888512008401000202501012025013100000086600DBK120250109
02123018250   202412232104574031221045740312202501090010                                   00100794888512008409019202501012025013100000008200KBK120250109
02123018249   202412232104574031221045740312202501090010                                   00100794888512008409019202501012025013100000008200KBK120250109
02123018247   202412232104574031221045740312202501090010                                   00100794888512008409019202501012025013100000045300KBK120250109
02123018248   202412232104574031221045740312202501090010                                   00100794888512008409019202501012025013100000015100KBK120250109
02123018252   202412232104574031221045740312202501090010                                   00100794888512008409019202501012025013100000024500KBK120250109
02123018251   202412232104574031221045740312202501090010                                   00100794888512008409019202501012025013100000024500KBK120250109
02123098278   202412230304524508903045245089202501100012                                   00100795498516008401000202501012025013100000684700DBK120250110
02123177402   190001010304524508903045245089202501100012                                   00100795498516008409030202501012025013100000425900KBK120250110
02123176768   190001012601383643326013836433202501090010                                   00100795056824008409030202501012025013100000245200KBK120250109
02122950282   202412232601383643326013836433202501090010                                   00100795056824008401000202501012025013100001141000DBK120250109
02123177552   190001011310562709713105627097202501230018                                   00100795510128008409030202311012023113000000048800KBKT20250123
02123177552   190001011310562709713105627097202501230018                                   00100795510128008409030202312012023123100000048800KBKT20250123
02123177552   190001011310562709713105627097202501230018                                   00100795510128008409030202401012024013100000048800KBKT20250123
02123177552   190001011310562709713105627097202501230018                                   00100795510128008409030202402012024022900000048800KBKT20250123
02123177552   190001011310562709713105627097202501230018                                   00100795510128008409030202403012024033100000048800KBKT20250123
02123177552   190001011310562709713105627097202501230018                                   00100795510128008409030202404012024043000000048800KBKT20250123
02123177564   190001011310562709713105627097202501230018                                   00100795510128008409030202405012024053100000050300KBKT20250123
02123177564   190001011310562709713105627097202501230018                                   00100795510128008409030202406012024063000000050300KBKT20250123
02123177564   190001011310562709713105627097202501230018                                   00100795510128008409030202407012024073100000050300KBKT20250123
02123177564   190001011310562709713105627097202501230018                                   00100795510128008409030202408012024083100000050300KBKT20250123
02123177564   190001011310562709713105627097202501230018                                   00100795510128008409030202409012024093000000050300KBKT20250123
0900000003400000004903200
